:1000000099C00000B6C00000B4C00000B2C000003B
:10001000B0C00000AEC0000021C10000AAC00000B6
:10002000A8C00000A6C00000A4C00000A2C000003C
:10003000A0C000009EC000009CC000009AC000004C
:1000400098C0000096C0000094C0000092C000005C
:1000500090C000008EC000008CC000008AC000006C
:1000600088C0000086C0000084C0000082C000007C
:1000700080C000007EC000007CC000007AC000008C
:1000800078C0000076C0000074C0000072C000009C
:10009000A4C000006EC000006CC000006AC0000078
:1000A00068C0000066C0000064C0000062C00000BC
:1000B00060C000005EC000005CC000005AC00000CC
:1000C00058C0000056C0000054C0000052C00000DC
:1000D00050C000004EC000004CC000004AC00000EC
:1000E00048C0000046C0000044C0000042C00000FC
:1000F00040C000003EC000003CC000003AC000000C
:1001000038C0000036C0000034C0000032C000001B
:1001100030C000002EC000002CC000002AC000002B
:1001200028C0000026C0000024C0000022C000003B
:1001300020C0000011241FBECFEFD1E8DEBFCDBF2D
:1001400000E00CBF12E0A0E0B2E0EAE8F3E000E07B
:100150000BBF02C007900D92AE39B107D9F722E06C
:10016000AEE9B2E001C01D92A03AB207E1F7C1D0FA
:100170000AC146CF9093CD008093CC00E9ECF0E02B
:1001800080818061808380818860808380818068B5
:100190008083EAECF0E080818460808380818260EB
:1001A0008083789408959091C80095FFFCCF809348
:1001B000CE000895CF93DF93EC0102C0F4DF2196C7
:1001C00088818111FBCFDF91CF9108958091C80084
:1001D0008823E4F78091CE0008951F920F920FB606
:1001E0000F9211248F938091CE0080939F028F9164
:1001F0000F900FBE0F901F90189520E030E01AC0AE
:1002000085B18F7B85B94FEF84E39CE041508040FE
:100210009040E1F700C0000085B1806485B94FEFE0
:1002200084E39CE0415080409040E1F700C0000032
:100230002F5F3F4F233031051CF3089580E092E09B
:10024000B9DF88E092E0B6DF82E192E0B3DF85E2D9
:1002500092E0B0DF8AE392E0ADCF08951F920F9253
:100260000FB60F9211240BB60F922F933F934F931B
:100270005F936F937F938F939F93AF93BF93EF930E
:10028000FF9365990AC080919E02811106C081E3A7
:100290008ADF81E080939E0207C0659B05C0809144
:1002A0009E02811110929E028CB380628CBBFF91E2
:1002B000EF91BF91AF919F918F917F916F915F91DE
:1002C0004F913F912F910F900BBE0F900FBE0F904B
:1002D0001F9018958EB180628EB98DB18F7D8DB9CA
:1002E000EAE6F0E08081846080838DB380628DBB1C
:1002F0000895CF938EB180628EB98DB18F7D8DB907
:100300008CE090E037DFE6DF8AE592E053DF96DFAE
:1003100078945CDFC82F8823E1F345DF8CE992E015
:1003200049DFC13369F018F4C03331F120C0C23362
:1003300091F0C333B9F01BC08C2F35DFCF5F01C004
:10034000C1E6CB37C8F38CE992E034DF13C08C2FC1
:100350002ADFCF5F01C0C1E4CB35C8F38CE992E05E
:1003600029DF08C084B1806484B947DF03C08DE809
:1003700092E020DF63DFCDCF81E892E01BDF80E0F9
:0A03800090E0CF910895F894FFCFAC
:10038A000A4D454E553A0A0030202D2045786974A9
:10039A000A0031202D20536D616C6C206C657474D9
:1003AA006572730A0032202D204361706974616C92
:1003BA00206C6574746572730A0033202D20426CB8
:1003CA00696E6B204C4544320A00427574746F6E34
:1003DA0020707265737365640A005541525420692E
:1003EA006E697469616C697A65642E2053746172EE
:1003FA0074696E672070726F6772616D2E2E2E0A95
:10040A000045786974696E672E2E2E0A00496E7649
:0E041A00616C69642063686F696365210A0084
:00000001FF
