:1000000099C00000B6C00000B4C00000B2C000003B
:10001000B0C00000AEC000004AC10000AAC000008D
:10002000A8C00000A6C00000A4C00000A2C000003C
:10003000A0C000009EC000009CC000009AC000004C
:1000400098C0000015C2000094C0000092C00000DB
:1000500090C000008EC000008CC000008AC000006C
:1000600088C0000086C0000084C0000082C000007C
:1000700080C000007EC000007CC000007AC000008C
:1000800078C0000076C0000074C0000072C000009C
:10009000A8C000006EC000006CC000006AC0000074
:1000A00068C0000066C0000064C0000062C00000BC
:1000B00060C000005EC000005CC000005AC00000CC
:1000C00058C0000056C0000054C0000052C00000DC
:1000D00050C000004EC000004CC000004AC00000EC
:1000E00048C0000046C0000044C0000042C00000FC
:1000F00040C000003EC000003CC000003AC000000C
:1001000038C0000036C0000034C0000032C000001B
:1001100030C000002EC000002CC000002AC000002B
:1001200028C0000026C0000024C0000022C000003B
:1001300020C0000011241FBECFEFD1E8DEBFCDBF2D
:1001400000E00CBF13E0A0E0B2E0E6E6F5E000E07E
:100150000BBF02C007900D92AA3AB107D9F723E06E
:10016000AAEAB3E001C01D92AD3AB207E1F79AD115
:10017000F8C146CF9093CD008093CC00E9ECF0E03D
:1001800080818061808380818860808380818068B5
:100190008083EAECF0E080818460808380818260EB
:1001A0008083789408959091C80095FFFCCF809348
:1001B000CE000895CF93DF93EC0106C08A3011F48E
:1001C0008DE0F1DF8991EFDF88818111F7CFDF9139
:1001D000CF9108958091C8008823E4F78091CE00E4
:1001E00008951F920F920FB60F9211248F93809152
:1001F000CE008093AC038F910F900FBE0F901F9095
:10020000189520E030E01AC085B18F7B85B94FEF9B
:1002100084E39CE0415080409040E1F700C0000042
:1002200085B1806485B94FEF84E39CE04150804004
:100230009040E1F700C000002F5F3F4F23303105B1
:100240001CF3089581E092E0B5DF86E092E0B2CF42
:100250000895F8DF8AE092E0ADDF80E192E0AADF66
:1002600088E192E0A7DF82E292E0A4DF85E392E0FA
:10027000A1DF8AE492E09EDF8AE592E09BCF0895B9
:10028000E1DF8AE092E096DF8CE692E093DF81E89E
:1002900092E090DF85E992E08DDF88EA92E08ADFE4
:1002A00081EC92E087DF8AED92E084CF08951F927F
:1002B0000F920FB60F9211240BB60F922F933F930C
:1002C0004F935F936F937F938F939F93AF93BF935E
:1002D000EF93FF9365990AC08091AA03811106C02C
:1002E00081E361DF81E08093AA0307C0659B05C0BD
:1002F0008091AA0381111092AA038CB380628CBBF7
:10030000FF91EF91BF91AF919F918F917F916F91ED
:100310005F914F913F912F910F900BBE0F900FBEA9
:100320000F901F9018958EB180628EB98DB18F7D20
:100330008DB9EAE6F0E08081846080838DB38062CD
:100340008DBB0895F89410928000E1E8F0E01082EF
:1003500010926F0081E49FE0909389008093880061
:1003600080818860808378940895E1E8F0E080815E
:1003700085608083EFE6F0E0808182608083E0E842
:10038000F0E0808180648083089510928100EFE620
:10039000F0E080818D7F80830895CF93DF93F89480
:1003A000E0EBF0E0108221EB30E0D9011C92C0E7D5
:1003B000D0E01882BFEF8B9FC001112464E670E08B
:1003C000A9D06093B3008081826080838081816046
:1003D0008083D9018C9187608C9388818160888328
:1003E0008081806880837894DF91CF9108958033F5
:1003F00009F43DC028F48B32B9F08D3229F134C0B4
:10040000813319F0823349F02FC081E08093AB0330
:10041000ACDF81E093E0CECE08951092AB03B5DF60
:1004200088E193E0C7CE089580910002843628F4D5
:10043000809100028B5F8093000280910002ADDF0B
:100440008FE293E0B7CE089580910002882329F0CF
:1004500080910002855080930002809100029DDF10
:100460008AE493E0A7CE089585E693E0A3CE0895AD
:100470001F920F920FB60F9211248F939F9380912A
:10048000AB03882329F095B180E2892785B903C0A1
:1004900085B1806285B99F918F910F900FBE0F90AB
:1004A0001F901895CF9384B1806284B94BDF8EB1D1
:1004B00080628EB98DB18F7D8DB98CE090E05ADE6F
:1004C00032DF86E793E076DEC4DE789483DEC82FE1
:1004D0008823E1F368DE84E793E06CDEC33329F020
:1004E000C43341F0C03351F40EC084B1806484B988
:1004F00088DE07C0C5DE6EDE7ADF03C085E693E0E6
:1005000059DEA7DEE3CF8DE993E054DE80E090E092
:10051000CF91089597FB072E16F4009406D077FD2F
:1005200008D00BD007FC05D03EF4909581959F4FE5
:100530000895709561957F4F0895AA1BBB1B51E1EB
:1005400007C0AA1FBB1FA617B70710F0A61BB70B43
:10055000881F991F5A95A9F780959095BC01CD01E8
:060560000895F894FFCF9E
:10056600321B5B324A001B5B48001B5B33326D005B
:100576000A4D454E553A0A0030202D2045786974BB
:100586000A0031202D20536D616C6C206C657474EB
:100596006572730A0032202D204361706974616CA4
:1005A600206C6574746572730A0033202D20426CCA
:1005B600696E6B204C4544320A0034202D204C4590
:1005C600443120436F6E74726F6C0A000A4C4544C6
:1005D6003120436F6E74726F6C204D656E753A0AEA
:1005E6000031202D20537461727420626C696E6B29
:1005F600696E670A0032202D2053746F7020626C7A
:10060600696E6B696E670A002B202D20496E637236
:1006160065617365206272696768746E6573730AD3
:10062600002D202D2044656372656173652062721A
:10063600696768746E6573730A0030202D20426105
:10064600636B20746F206D61696E206D656E750A2F
:1006560000427574746F6E20707265737365640AF8
:10066600004C45443120626C696E6B696E6720737D
:100676007461727465640A004C45443120626C6989
:100686006E6B696E672073746F707065640A0049DB
:100696006E63726561736564204C454431206272F5
:1006A600696768746E6573730A0044656372656191
:1006B600736564204C454431206272696768746EC4
:1006C6006573730A00496E76616C69642063686FAE
:1006D600696365210A005541525420696E6974693F
:1006E600616C697A65642E205374617274696E67F1
:1006F6002070726F6772616D2E2E2E0A0045786922
:0A07060074696E672E2E2E0A0000A3
:00000001FF
