:1000000099C00000B6C00000B4C00000B2C000003B
:10001000B0C00000AEC00000ACC00000AAC000002C
:10002000A8C00000A6C00000A4C00000A2C000003C
:10003000A0C000009EC000009CC000009AC000004C
:1000400098C0000096C0000094C0000092C000005C
:1000500090C000008EC000008CC000008AC000006C
:1000600088C0000086C0000084C0000082C000007C
:1000700080C000007EC000007CC000007AC000008C
:1000800078C0000076C0000074C0000072C000009C
:100090002CC100006EC000006CC000006AC00000EF
:1000A00068C0000066C0000064C0000062C00000BC
:1000B00060C000005EC000005CC000005AC00000CC
:1000C00058C0000056C0000054C0000052C00000DC
:1000D00050C000004EC000004CC000004AC00000EC
:1000E00048C0000046C0000044C0000042C00000FC
:1000F00040C000003EC000003CC000003AC000000C
:1001000038C0000036C0000034C0000032C000001B
:1001100030C000002EC000002CC000002AC000002B
:1001200028C0000026C0000024C0000022C000003B
:1001300020C0000011241FBECFEFD1E8DEBFCDBF2D
:1001400000E00CBF12E0A0E0B2E0E6E6FFE000E075
:100150000BBF02C007900D92AE3FB107D9F723E065
:10016000AEEFB2E001C01D92AD35B207E1F78BD022
:10017000F8C646CFF89480E096E9CBD1E9ECF0E000
:1001800080818068808386E092E09093560380931C
:10019000550384B1806184B985B1806185B984B12A
:1001A000806284B985B1806285B98DB18F7E8DB949
:1001B0008EB180618EB98DB380618DBBEAE6F0E0CF
:1001C00080818260808380818160808378940895BB
:1001D000EF92FF920F931F93CF93DF93CDB7DEB7CC
:1001E0006A970FB6F894DEBF0FBECDBF7C0100E06A
:1001F00037C0812FA3D11A30D9F4E0910003F0E089
:10020000EF5FFC4F1082BE016F5F7F4F81E093E094
:10021000D5D08F81882349F084E192E096D1CE0138
:10022000079693D181E692E090D11092000311C01D
:1002300080910003813558F4E091000381E08E0F36
:1002400080930003F0E0EF5FFC4F108302C0109238
:1002500000038FE19EE40197F1F700C000000F5FFB
:10026000F701E00FF11D10811111C3CF6A960FB68F
:10027000F894DEBF0FBECDBFDF91CF911F910F91DC
:10028000FF90EF90089576DF60E070E081EB92E000
:10029000F3D1909356038093550387E292E055D1B2
:1002A0002FEF8DE399E4215080409040E1F700C0AA
:1002B00000008FE392E049D184E692E089DF2FEFDE
:1002C00089E698E1215080409040E1F700C00000AD
:1002D00088EA92E07DDF2FEF89EB9BED2150804093
:1002E0009040E1F700C00000E4CF1F920F920FB6DC
:1002F0000F9211240BB60F921F932F933F934F939E
:100300005F936F937F938F939F93AF93BF93EF937D
:10031000FF93CF93DF93CDB7DEB76A97DEBFCDBF34
:100320001091CE00812F0AD11A30D9F4E091000348
:10033000F0E0EF5FFC4F1082BE016F5F7F4F81E006
:1003400093E03CD08F81882349F084E192E0FDD096
:10035000CE010796FAD081E692E0F7D01092000322
:1003600011C080910003813558F4E091000381E0D1
:100370008E0F80930003F0E0EF5FFC4F108302C00C
:10038000109200036A960FB6F894DEBF0FBECDBF81
:10039000DF91CF91FF91EF91BF91AF919F918F919D
:1003A0007F916F915F914F913F912F911F910F908E
:1003B0000BBE0F900FBE0F901F901895CF92DF923B
:1003C000EF92FF920F931F93CF93DF93CDB7DEB7DA
:1003D0002D970FB6F894DEBF0FBECDBF6B01FC01A9
:1003E0002081243209F401966CEE72E001D18C0177
:1003F000E12CF12C7BC0E114F10429F0F1E0EF16BF
:10040000F10449F06AC045E050E0B801C601FED0F1
:10041000F601158262C0F80101900020E9F73197DA
:10042000E01BF10B399708F450C042E050E0B801EE
:10043000CE010B96EBD01D86B8016E5F7F4F42E078
:1004400050E0CE010896E2D01A86B8016C5F7F4F6B
:1004500042E050E0CE010596D9D01F826EE270E0F6
:10046000C801C9D0009751F0BC016F5F7F4F43E0D6
:1004700050E0CE010196CAD01C8208C080E390E310
:100480009A83898380E390E09C838B83CE010196DD
:100490009F938F9304969F938F9303969F938F932D
:1004A00003969F938F938EEE92E09F938F931F926C
:1004B00084E18F93C60106969F938F9327D10FB641
:1004C000F894DEBF0FBECDBF08C043E150E0B801D5
:1004D000C60106969BD0F601118EFFEFEF1AFF0AB8
:1004E0006CEE72E080E090E083D08C010115110584
:1004F00009F081CF2D960FB6F894DEBF0FBECDBFA9
:10050000DF91CF911F910F91FF90EF90DF90CF90EF
:1005100008959C0140E050E060E271EA87E090E0DD
:1005200029D02150310986E08093CA003093CD0054
:100530002093CC0088E18093C90008959091C80071
:1005400095FFFCCF8093CE000895CF93DF93EC010D
:1005500002C0F4DF219688818111FBCFDF91CF911A
:1005600008959091C80095FFFCCF8093CE0080E065
:1005700090E00895052E97FB16F400940FD057FDD8
:1005800005D014D007FC02D046F408C05095409521
:10059000309521953F4F4F4F5F4F0895909580952F
:1005A000709561957F4F8F4F9F4F0895A1E21A2E4E
:1005B000AA1BBB1BFD010DC0AA1FBB1FEE1FFF1F07
:1005C000A217B307E407F50720F0A21BB30BE40B57
:1005D000F50B661F771F881F991F1A9469F760959E
:1005E0007095809590959B01AC01BD01CF01089558
:1005F0004EEF52E01AC0FC018191861721F088234A
:10060000D9F7992708953197CF010895FB01DC01AF
:100610004150504048F001900D920020C9F701C0B0
:100620001D9241505040E0F70895FA01A191B08128
:10063000009719F41097E1F0CD01DC01CD010D9088
:10064000002011F4C00113C0FB012191222319F0F5
:100650002015D9F7F3CFFB012191201519F41E9233
:10066000119606C02223C1F70D900020A1F7D001FA
:10067000FA01A193B08308950F931F93CF93DF9353
:10068000009731F46115710519F480E090E039C0EC
:100690008B01EC016EE070E081E090E070D2FC0133
:1006A000892B99F380E883830115110571F0138775
:1006B000028781E883838091530390915403892BAF
:1006C00021F4F0935403E09353032097C9F0D187AA
:1006D000C087838182608383809155039091560304
:1006E000892B71F4F0935603E093550380915703DF
:1006F00090915803892B21F4F0935803E09357030A
:10070000CF01DF91CF911F910F9108950F931F9308
:10071000CF93DF93CDB7DEB72E970FB6F894DEBF39
:100720000FBECDBF0E891F89888D998D26E02C8341
:100730001A83098397FF02C080E090E801979E83A7
:100740008D83AE01445E5F4F6A8D7B8DCE01019635
:1007500019D04D815E8157FD0AC02F81388542171F
:1007600053070CF49A01F801E20FF31F10822E9642
:100770000FB6F894DEBF0FBECDBFDF91CF911F91B2
:100780000F9108952F923F924F925F926F927F92B6
:100790008F929F92AF92BF92CF92DF92EF92FF9291
:1007A0000F931F93CF93DF93CDB7DEB72B970FB681
:1007B000F894DEBF0FBECDBF6C017B018A01FC0146
:1007C00017821682838181FFBFC1CE0101963C0151
:1007D000F6019381F70193FD859193FF81917F014C
:1007E000882309F4ADC1853239F493FD859193FFD7
:1007F00081917F01853221F4B60190E018D3E8CFD2
:10080000912C212C312CFFE1F315D8F08B3279F0AB
:1008100038F4803279F08332A1F4232D20611DC099
:100820008D3261F0803369F4232D216016C0832D51
:100830008260382EE32DE4603E2E2AC0F32DF8604E
:100840001DC037FC2DC020ED280F2A3040F08E321D
:10085000B9F436FC75C1232D2064322E19C036FE42
:1008600006C08AE0989E200D1124922E11C0EAE065
:100870002E9E200D1124222EF32DF0623F2E08C053
:100880008C3621F4832D8068382E02C0883641F4DE
:10089000F70193FD859193FF81917F018111B3CF82
:1008A000982F9F7D9554933028F40C5F1F4F9FE342
:1008B00099830DC0833631F0833771F0833509F0A9
:1008C00055C020C0F801808189830E5F1F4F8824A6
:1008D0008394912C530112C02801F2E04F0E511C59
:1008E000F801A080B18036FE03C0692D70E002C01F
:1008F0006FEF7FEFC50190D24C018201F32DFF779E
:100900003F2E15C0280122E0420E511CF801A080A4
:10091000B18036FE03C0692D70E002C06FEF7FEF3B
:10092000C50168D24C01F32DF0683F2E820133FCE3
:1009300019C0822D90E088169906A0F4B60180E2D5
:1009400090E075D22A94F5CFF50137FC859137FEFA
:1009500081915F01B60190E06AD221102A9421E0D2
:10096000821A91088114910479F7E1C0843611F05C
:10097000893639F5F80137FE07C0608171818281BF
:1009800093810C5F1F4F08C060817181072E000C9E
:10099000880B990B0E5F1F4FF32DFF763F2E97FFAD
:1009A00009C090958095709561957F4F8F4F9F4FAF
:1009B000F0683F2E2AE030E0A30175D2882E861819
:1009C00044C0853731F4232D2F7EB22E2AE030E04B
:1009D00025C0932D997FB92E8F36C1F018F4883534
:1009E00079F0AEC0803719F0883721F0A9C0E92F1F
:1009F000E061BE2EB4FE0DC0FB2DF460BF2E09C019
:100A000034FE0AC0292F2660B22E06C028E030E04E
:100A100005C020E130E002C020E132E0F801B7FE7D
:100A200007C060817181828193810C5F1F4F06C076
:100A30006081718180E090E00E5F1F4FA30133D28F
:100A4000882E8618FB2DFF773F2E36FE0DC0232DF6
:100A50002E7FA22E891458F434FE0BC032FC09C03C
:100A6000832D8E7EA82E05C0B82CA32C03C0B82CD5
:100A700001C0B92CA4FE0FC0FE01E80DF11D80815C
:100A8000803321F49A2D997EA92E09C0A2FE06C0BA
:100A9000B394B39404C08A2D867809F0B394A3FC70
:100AA00010C0A0FE06C0B21480F4280C922C9B1833
:100AB0000DC0B21458F4B60180E290E0B8D1B394FE
:100AC000F8CFB21418F42B1802C0982C212CA4FED5
:100AD0000FC0B60180E390E0AAD1A2FE16C0A1FC2F
:100AE00003C088E790E002C088E590E0B6010CC042
:100AF0008A2D867851F0A1FE02C08BE201C080E20F
:100B0000A7FC8DE2B60190E092D1891430F4B601D1
:100B100080E390E08CD19A94F8CF8A94F301E80DA9
:100B2000F11D8081B60190E082D18110F6CF2220A4
:100B300009F44ECEB60180E290E079D12A94F7CF45
:100B4000F6018681978102C08FEF9FEF2B960FB63B
:100B5000F894DEBF0FBECDBFDF91CF911F910F91F3
:100B6000FF90EF90DF90CF90BF90AF909F908F90CD
:100B70007F906F905F904F903F902F9008950F93CC
:100B80001F93CF93DF93869F8001879F100D969FC1
:100B9000100D1124C8010DD0EC01009721F0A8011F
:100BA00060E070E032D1CE01DF91CF911F910F91C3
:100BB00008950F931F93CF93DF938230910510F424
:100BC00082E090E0E0915B03F0915C0320E030E094
:100BD000A0E0B0E0309719F140815181028113818A
:100BE00048175907C8F08417950769F4109731F032
:100BF00012960C93129713961C9327C000935B03D5
:100C000010935C0322C02115310519F042175307D8
:100C100018F49A01BD01EF01DF01F801DBCF2115C6
:100C20003105F9F0281B390B2430310580F48A8115
:100C30009B816115710521F0FB019383828304C0C0
:100C400090935C0380935B03FE01329644C0FE01E7
:100C5000E20FF31F81939193225031093983288346
:100C60003AC02091590330915A03232B41F420912B
:100C700002023091030230935A03209359032091CA
:100C80000002309101022115310541F42DB73EB724
:100C90004091040250910502241B350BE091590349
:100CA000F0915A03E217F307A0F42E1B3F0B28170D
:100CB000390778F0AC014E5F5F4F2417350748F0D5
:100CC0004E0F5F1F50935A034093590381939193A2
:100CD00002C0E0E0F0E0CF01DF91CF911F910F91D2
:100CE0000895CF93DF93009709F481C0FC013297F8
:100CF00013821282A0915B03B0915C03109781F480
:100D000020813181820F931F2091590330915A0322
:100D10002817390751F5F0935A03E093590367C038
:100D2000ED0120E030E0CE17DF0740F44A815B811F
:100D30009E0141155105F1F0EA01F5CFD383C2833D
:100D400040815181840F951FC817D90759F48881B4
:100D50009981840F951F0296918380838A819B815C
:100D6000938382832115310529F4F0935C03E0938A
:100D70005B033DC0E901FB83EA8349915991C40FAC
:100D8000D51FEC17FD0761F480819181840F951FB9
:100D90000296E90199838883828193819B838A8368
:100DA000E0E0F0E012968D919C911397009719F076
:100DB000FD01DC01F7CF8D919C9111979D012E5F74
:100DC0003F4F820F931F2091590330915A032817E8
:100DD000390769F4309729F410925C0310925B0391
:100DE00002C013821282B0935A03A0935903DF9179
:100DF000CF910895FC010590615070400110D8F723
:100E0000809590958E0F9F1F0895DC0101C06D9312
:100E100041505040E0F70895FC016150704001904E
:100E20000110D8F7809590958E0F9F1F08950F930E
:100E30001F93CF93DF93FB01238121FD03C08FEF2D
:100E40009FEF2CC022FF16C0468157812481358137
:100E50004217530744F4A081B1819D012F5F3F4F9A
:100E6000318320838C93268137812F5F3F4F3783D7
:100E7000268314C08B01EC01FB010084F185E02D79
:100E80001995892BE1F6D80116968D919C911797AB
:100E9000019617969C938E931697CE01DF91CF9172
:100EA0001F910F910895FA01AA27283051F120319E
:100EB00081F1E8946F936E7F6E5F7F4F8F4F9F4FEE
:100EC000AF4FB1E03ED0B4E03CD0670F781F891F30
:100ED0009A1FA11D680F791F8A1F911DA11D6A0FFE
:100EE000711D811D911DA11D20D009F468943F91B1
:100EF0002AE0269F11243019305D3193DEF6CF01B0
:100F00000895462F4770405D4193B3E00FD0C9F775
:100F1000F6CF462F4F70405D4A3318F0495D31FDE2
:100F20004052419302D0A9F7EACFB4E0A695979535
:100F3000879577956795BA95C9F70097610571050B
:100F400008959B01AC010A2E069457954795379555
:100F50002795BA95C9F7620F731F841F951FA01DAF
:060F60000895F894FFCF94
:100F660000005D0320000000000300000000B10245
:100F7600000000000D0A5A707261636F76616E7927
:100F8600206361733A200053746172742047505392
:100F96002073696D756C6163652E2E2E0D0A000D2A
:100FA6000A2D2D2D2053696D756C756A69206E6F3B
:100FB600766F75204E4D45412076657475202D2D32
:100FC6002D0D0A002447504747412C31303134302B
:100FD600332E3330382C343932372E3933302C4EC9
:100FE6002C30313732322E3838342C452C312C31D6
:100FF600322C312E302C302E302C4D2C302E302CE5
:101006004D2C2C2A36320A002447504747412C31B2
:1010160031313730332E3936362C343932372E3299
:1010260033372C4E2C30313732332E3430392C4571
:101036002C312C31322C312E302C302E302C4D2CA4
:10104600302E302C4D2C2C2A36360A002C002573D7
:0E1056003A25733A25732C2573205554430018
:00000001FF
